:0A0000000C944B000C9400000C94CB
:10000A0000000C9400000C9400000C9400000C9466
:10001A0000000C9400000C9400000C9400000C9456
:10002A0000000C9478000C9400000C94AA000C9424
:10003A0000000C9400000C9400000C9400000C9436
:10004A0000000C9400000C9400001027E8036400E0
:10005A000A00010000100001100001000000000069
:10006A0000000000000001002D4E414E00494E469E
:10007A00000001000200660006000400680001009A
:10008A0060016E000100A90170000000F894EE27DB
:10009A00ECBBF1E0FBBFEBBFE5BF8DE0A2E0BB2705
:1000AA00ED938A95E9F780E094E0A0E6ED93019755
:1000BA00E9F7ECE7F0E085919591009761F0A59159
:1000CA00B59105901590BF01F00105900D92019729
:1000DA00E1F7FB01F0CFEFE5EDBFE4E0EEBFC0E6EC
:1000EA00D1E00C940D01EA93FA93EFB7EA931A93CD
:1000FA000A931BB10CB1E12FEC7189F4E52D5394ED
:10010A00F0E0EF59FE4F0083E8E0E51509F45524C5
:10011A007394E8E0E71519F47724689420F80991B4
:10012A00199125C01A937720F1F3E42D4394F0E056
:10013A00EF59FE4F1081E8E0E41509F44424F894DD
:10014A007A947894E12F19910895EA93FA93EFB784
:10015A00EA93882061F08A94E92D9394F0E0E759B4
:10016A00FE4FE081ECB9E0E4E91509F49924E9913C
:10017A00EFBFF991E9911895AA93E0E4E815E9F33C
:10018A00F894882011F45D990DC0E62D6394F0E08F
:10019A00E759FE4FA881A083E0E4E61509F4662436
:1001AA00839402C0E881ECB9789421960895E0E03E
:1001BA00EABBEBBBE7BBE8BBEFEFE4BBE5BBE0E0C8
:1001CA00E1BBE2BBE3BFE2BFECBFEFBDEEBDEDBDFD
:1001DA00ECBDE7BDE6BDEBBDEABDE9BDE8BDE2BDEC
:1001EA00E5BDE4BDE3BDE9BFE5BFE4BFEBB9E8EDBA
:1001FA00EAB9E6E8E0BDE0E0E0BDE7E4E9B9E0E855
:10020A00E8B9E0E0E0BFE6B9EDB9E6BF7894089551
:10021A002A9720E030E0CBDFEFEFE4BBE5BB7720A5
:10022A00B1F080DF0E2FF0E0E130A0E0FA0731F400
:10023A00A89B02C0A89801C0A89A09C0E230A0E011
:10024A00FA0729F4AA9B02C0AA9801C0AA9A22E333
:10025A0030E03A932A93DE0112960E944001A2E30B
:10026A008BDFA0E6B1E00E946E01A4EFB1E00E942C
:10027A008301D5CFFFCFBA93AA93A991B991E991F6
:10028A00F99130962AF4E095F09531966DE26D93E6
:10029A00E89480E197E20DD088EE93E00AD084E6F4
:1002AA00992707D08AE005D06E2F10D066276C9365
:1002BA0008956627E817F90720F06395E81BF90BFC
:1002CA00C9F7662311F416F008956894605D6D937A
:1002DA000895BA93AA931A93A981BA81ED91A98331
:1002EA00BA831E2FE03021F0A12F0E94C100F4CF63
:1002FA00AAE00E94C100188123960895109639F049
:10030A008DEC9AE00197F1F7A8951197C9F708952E
:00000001FF
